:020000040800F2
:10000000201A00207D670008C9650008CB6500083C
:10001000CD650008CF650008D1650008000000002C
:10002000000000000000000000000000D365000890
:10003000D565000800000000D7650008D9650008F4
:10004000C9670008CD670008D1670008D5670008B8
:10005000D9670008DD670008E1670008E567000868
:10006000E9670008ED670008F1670008F567000818
:10007000F9670008FD6700080168000805680008C6
:10008000096800080D68000811680008E5650008A7
:10009000EF65000815680008196800081D68000869
:1000A0000000000021680008256800082968000891
:1000B0002D680008316800083568000839680008B4
:1000C0003D68000841680008456800084968000864
:1000D0004D68000851680008556800085968000814
:1000E0005D680008616800086568000869680008C4
:1000F0006D6800080000000071680008756800085D
:100100000000000000000000796800087D68000819
:100110008168000885680008896800080000000000
:100120008D68000810B5040000200020002C01D1CB
:10013000012083E094F8E901002805D1002084F82B
:10014000E801200001F048F9032084F8E9010020CB
:1001500026E001211C2202FB00F2224482F8291031
:100160001C2101FB00F1214481F8280000211C2200
:1001700002FB00F2224482F82B1000211C2202FB19
:1001800000F22244516300211C2202FB00F22244AF
:10019000916300211C2202FB00F22244D163401C27
:1001A00061688842D5D3002029E000211C2202FB8F
:1001B00000F2224482F809111C2101FB00F12144C4
:1001C00081F8080100211C2202FB00F2224482F87F
:1001D0000B1100211C2202FB00F22244C2F8141170
:1001E00000211C2202FB00F22244C2F81811002157
:1001F0001C2202FB00F22244C2F81C11401C616860
:100200008842D2D301202168A1F840000020216853
:10021000A1F8400000202168A1F8440000202168D6
:10022000A1F850004FF43D402168A1F840000020A3
:1002300084F82400012084F8E901002010BD80B575
:10024000012101F0DAF9002002BDF8B50400002711
:100250000020ADF8000030E02068008848F60F71FB
:1002600008402168088014F128052068B0F8500083
:10027000297810EBC100216811EB400000F2044026
:1002800000688005800DA8612869A9690844286173
:100290000021200001F0D9F894F8240000280CD0A7
:1002A0006869002809D194F8240050F08000216882
:1002B000A1F84C00002084F824002068B0F8440025
:1002C000ADF80200000440F1D281BDF8020010F048
:1002D0000F06F6B2002E40F09180BDF80200C00675
:1002E000BAD54FF4847004EB000520680088ADF89F
:1002F0000000BDF80000000523D52068B0F85000CC
:10030000297810EBC100216811EB400000F20C408D
:1003100000688005800DA861AB699BB2AA884FF484
:10032000F67004EB0001206800F0BBF9206800883B
:1003300040F68F71084021680880200001F06EF8B7
:10034000BBE7BDF800000004B7D52068008840F680
:100350008F710840216808802068B0F85000297823
:1003600010EBC100216811EB400000F20C40006866
:100370008005800DA861A86900280AD0AB699BB2EE
:10038000AA882969206800F08CF92869A9690844BD
:1003900028610021200001F04AF82068B0F85000E0
:1003A000216811EB400000F20C40E9683F290CD3B2
:1003B000E96849092A7B12F01F0F00D1491E890202
:1003C00051F4004189B2016008E0E96849082A7BDC
:1003D000D20700D5491C890289B2016020680088D3
:1003E0004BF68F71084090F4805090F4005040F428
:1003F000004050F08000216808805EE72068F6B277
:1004000030F82600ADF80000BDF80000000440F10F
:1004100090802068F6B230F8260040F68F710840D0
:100420002168F6B221F82600F6B21C2000FB06F087
:1004300020444FF4847100EB0105A87A002818D1FC
:100440002068B0F85000297810EBC100216811EB4A
:10045000400000F20C4000688705BF0DBFB2002FBE
:100460004DD03B009BB2AA882969206800F019F999
:1004700045E02068297830F82100400418D520682C
:10048000B0F85000297810EBC100216811EB400052
:1004900000F2044000688705BF0DBFB2002F1FD0D7
:1004A0003B009BB2EA882969206800F0FAF817E05F
:1004B0002068B0F85000297810EBC100216811EBDA
:1004C000400000F20C4000688705BF0DBFB2002F4E
:1004D00006D03B009BB22A892969206800F0E1F828
:1004E0002068297830F8210048F68F71084040F4E0
:1004F000004050F0C00021682A7821F82200A86945
:10050000BFB23818A8612869BFB238442861686949
:10051000002803D0BFB2E868874204D229782000BF
:1005200000F085FF05E06B692A692978200000F05A
:10053000B3FCBDF8000000067FF5BFAEF6B21C208C
:1005400000FB06F0204410F128052068F6B230F8D0
:10055000260048F60F7108402168F6B221F82600FF
:10056000A87A002819D12068B0F85000297810EB3B
:10057000C100216811EB400000F2044000688005D2
:10058000800DA861A86900284FD0AB699BB2AA88EA
:100590002969206800F06DF847E02068297830F874
:1005A0002100400619D52068B0F85000297810EBDA
:1005B000C100216811EB400000F204400068800592
:1005C000800DA861A869002820D0AB699BB2EA8899
:1005D0002969206800F04DF818E02068B0F8500054
:1005E000297810EBC100216811EB400000F20C40AB
:1005F00000688005800DA861A869002806D0AB6955
:100600009BB22A892969206800F033F8206829788C
:1006100030F8210048F68F71084040F4404050F017
:10062000800021682A7821F822002068B0F8500064
:10063000297810EBC100216811EB400000F2044062
:1006400000688005800DA8612869A96908442861AF
:100650006869002804D12978200000F0F6FE2CE615
:100660006B692A692978200000F0DEFC25E600206D
:10067000F2BD10B49BB25B1C5B1092B210EB420057
:1006800010F5806209E00878491C0C7850EA0420D3
:100690001080921C921C491C5B1E002BF3D110BCD5
:1006A00070479BB25B1C5B1092B210EB420010F5DE
:1006B000806005E002680A80001D491C491C5B1E21
:1006C000002BF7D1704710B5040000202068B0F867
:1006D0004400000402D52000FFF7B7FD2068B0F801
:1006E000440040050FD52068B0F844004FF6FF31B4
:1006F00008402168A1F84400200000F0B9FE002164
:10070000200000F081F82068B0F84400400408D5CB
:100710002068B0F844004BF6FF7108402168A1F84A
:1007200044002068B0F84400800408D52068B0F880
:1007300044004DF6FF7108402168A1F8440020688C
:10074000B0F84400C00419D52068B0F840004FF656
:10075000FB7108402168A1F840004FF43D4021683A
:10076000A1F84000200000F0A6FE2068B0F8440088
:100770004EF6FF7108402168A1F844002068B0F8E7
:100780004400000520D52068B0F844004FF2FF7106
:1007900008402168A1F844002068B0F8400050F0FB
:1007A00008002168A1F840002068B0F8400050F02F
:1007B00004002168A1F840002068B0F84400C0049B
:1007C00002D4200000F067FE2068B0F844008005E5
:1007D0000BD52068B0F844004FF6FF51084021685F
:1007E000A1F84400200000F03DFE2068B0F844006D
:1007F000C00508D52068B0F844004FF6FF610840F6
:100800002168A1F8440010BD90F8E821012A01D127
:10081000022010E0012280F8E821C9B2002904D1A9
:1008200080210268A2F84C1001E080F82410002119
:1008300080F8E8110020704770B41C000023C9B292
:100840000D0607D5C9B211F07F051C267543054476
:10085000283508E0C9B211F07F051C267543054410
:100860004FF48476354411F07F062E70C9B2C90961
:10087000697092B2EA60EC7090F8E811012901D138
:100880000220DBE1012180F8E811E978002905D098
:10089000022911D02AD303291AD035E001682A7819
:1008A00031F8221048F68F12114051F4007102689D
:1008B0002C7822F8241027E001682A7831F82210D9
:1008C00048F68F12114002682C7822F824101BE0A1
:1008D00001682A7831F8221048F68F12114051F43D
:1008E000C06102682C7822F824100DE001682A7893
:1008F00031F8221048F68F12114051F480610268DD
:100900002C7822F82410FFE701682A7831F82210A9
:1009100048F68F7211402A78114341F4004151F09A
:10092000800102682C7822F82410A97A002940F06E
:1009300099806978002937D00168B1F850102A7879
:1009400011EBC201026812EB410111F58061AA8826
:1009500092B2520892B252000A6001682A7831F8C5
:10096000221049060ED501682A7831F8221048F67F
:100970008F72114041F4004151F0C00102682C789F
:1009800022F8241001682A7831F8221048F6BF7244
:10099000114091F0200141F4004151F080010268C2
:1009A0002C7822F8241044E10168B1F850102A781C
:1009B00011EBC201026812EB410111F58161AA88B5
:1009C00092B2520892B252000A600168B1F8501017
:1009D0002A7811EBC201026812EB410101F20C41CD
:1009E000EA683F2A0CD3EA6852092C7B14F01F0FE7
:1009F00000D1521E920252F4004292B20A6008E004
:100A0000EA6852082C7BE40700D5521C920292B28D
:100A10000A6001682A7831F8221049040ED501686D
:100A20002A7831F8221048F68F72114041F4404183
:100A300051F0800102682C7822F8241001682A788D
:100A400031F822104BF68F72114091F4805191F4DD
:100A5000005141F4004151F0800102682C7822F8E5
:100A60002410E6E001682A7831F8221048F68F72E7
:100A7000114041F4014151F0800102682C7822F8C4
:100A800024100168B1F850102A7811EBC2010268F5
:100A900012EB410111F58061EA8892B2520892B2DC
:100AA00052000A600168B1F850102A7811EBC201B7
:100AB000026812EB410111F581612A8992B2520854
:100AC00092B252000A60697800295BD101682A78E5
:100AD00031F8221049040ED501682A7831F8221025
:100AE00048F68F72114041F4404151F08001026894
:100AF0002C7822F8241001682A7831F8221049064F
:100B00000ED501682A7831F8221048F68F7211400C
:100B100041F4004151F0C00102682C7822F8241001
:100B200001682A7831F8221048F68F72114041F49A
:100B3000004151F0C00102682C7822F824100168AD
:100B40002A7831F822104BF68F72114091F48051BF
:100B500091F4005141F4004151F0800102682C7879
:100B600022F8241001682A7831F8221048F6BF7262
:100B7000114041F4004151F0800102682C7822F8C4
:100B8000241056E001682A7831F8221049040ED565
:100B900001682A7831F8221048F68F72114041F42A
:100BA000404151F0800102682C7822F8241001683D
:100BB0002A7831F8221049060ED501682A7831F8D2
:100BC000221048F68F72114041F4004151F0C001EB
:100BD00002682C7822F8241001682A7831F8221053
:100BE00048F68F72114041F4404151F08001026893
:100BF0002C7822F8241001682A7831F8221048F65F
:100C0000BF72114041F4004151F0800102682C781C
:100C100022F8241001682A7831F822104BF68F72DE
:100C2000114041F4004151F0800102682C7822F813
:100C30002410002180F8E8111800C0B270BC704781
:100C400010B4C9B20A0607D5C9B211F07F021C233D
:100C50005A430244283208E0C9B211F07F021C2333
:100C60005A4302444FF484731A4411F07F03137003
:100C7000C9B2C909517090F8E811012901D10220C7
:100C800008E1012180F8E811917A00294CD15178CE
:100C9000002924D00168137831F8231049060ED5B5
:100CA0000168137831F8231048F68F73194041F426
:100CB000004151F0C0010368147823F82410016842
:100CC000137831F8231048F6BF73194041F40041FE
:100CD00051F080010368127823F82210D6E00168F1
:100CE000137831F8231049040ED50168137831F8D0
:100CF000231048F68F73194041F4404151F08001B0
:100D00000368147823F824100168137831F823104D
:100D10004BF68F73194041F4004151F08001036894
:100D2000127823F82210B1E05178002957D10168D8
:100D3000137831F8231049040ED50168137831F87F
:100D4000231048F68F73194041F4404151F080015F
:100D50000368147823F824100168137831F82310FD
:100D600049060ED50168137831F8231048F68F73C1
:100D7000194041F4004151F0C0010368147823F890
:100D800024100168137831F8231048F68F73194046
:100D900041F4004151F0C0010368147823F8241095
:100DA0000168137831F823104BF68F73194041F422
:100DB000004151F080010368147823F82410016881
:100DC000137831F8231048F6BF73194041F40041FD
:100DD00051F080010368127823F8221056E0016870
:100DE000137831F8231049040ED50168137831F8CF
:100DF000231048F68F73194041F4404151F08001AF
:100E00000368147823F824100168137831F823104C
:100E100049060ED50168137831F8231048F68F7310
:100E2000194041F4004151F0C0010368147823F8DF
:100E300024100168137831F8231048F68F73194095
:100E400041F4404151F080010368147823F82410E4
:100E50000168137831F8231048F6BF73194041F444
:100E6000004151F080010368147823F824100168D0
:100E7000137831F823104BF68F73194041F4004179
:100E800051F080010368127823F82210002180F8C5
:100E9000E811002010BC704730B4C9B211F07F04D3
:100EA0001C256C4304444FF484752C442261636117
:100EB0000022A2610022627011F07F01217090F87F
:100EC000E811012901D10220ACE0012180F8E811EC
:100ED000E1686269914204D2E3686169C91A61619B
:100EE00002E0636900216161A17A00291FD10168D4
:100EF000B1F85010227811EBC201026812EB4101E7
:100F000001F20C413F2B0AD35A0913F01F0F00D1F5
:100F1000521E920252F4004292B20A606BE05A08EA
:100F2000DB0700D5521C920292B20A6063E061783E
:100F300000291FD10168B1F85010227811EBC201CD
:100F4000026812EB410101F204413F2B0AD35A0916
:100F500013F01F0F00D1521E920252F4004292B2BF
:100F60000A6016E05A08DD0700D5521C920292B2C0
:100F70000A600EE0617801290BD10168B1F85010C8
:100F8000227811EBC201026812EB410101F2044127
:100F90000B60617800291FD10168B1F850102278E8
:100FA00011EBC201026812EB410101F20C413F2B2F
:100FB0000AD35A0913F01F0F00D1521E920252F4A5
:100FC000004292B20A6016E05A08DB0700D5521CB4
:100FD000920292B20A600EE0617801290BD1016899
:100FE000B1F85010227811EBC201026812EB4101F6
:100FF00001F204410B600168227831F822104BF6AF
:101000008F72114091F4805191F4005141F40041EC
:1010100051F080010268237822F82310002180F823
:10102000E811002030BC704770B504001E0000209D
:10103000C9B211F07F001C235843204410F1280549
:101040002A616E610020A8610120687011F07F00A4
:10105000287094F8E801012801D10220D6E001208F
:1010600084F8E801E8686969884204D2EE68686932
:10107000801B686102E06E6900206861A87A002820
:1010800013D133009BB2AA8829692068FFF7F1FACF
:101090002068B0F85000297810EBC100216811EBEE
:1010A000400000F20440066099E0687800281FD1F3
:1010B0002068B0F85000297810EBC100216811EBCE
:1010C000400000F204403F2E0AD3710916F01F0FB2
:1010D00000D1491E890251F4004189B2016016E035
:1010E0007108F20700D5491C890289B201600EE03F
:1010F000687801280BD12068B0F85000297810EBEF
:10110000C100216811EB400000F2044006606878DD
:1011100000281FD12068B0F85000297810EBC100DA
:10112000216811EB400000F20C403F2E0AD37109F8
:1011300016F01F0F00D1491E890251F4004189B2F7
:10114000016016E07108F20700D5491C890289B2D6
:1011500001600EE0687801280BD12068B0F85000DB
:10116000297810EBC100216811EB400000F2044027
:1011700006602068297830F82100400601D52889CA
:1011800000E0E88833009BB2020092B2296920682F
:10119000FFF76FFA687800280FD12068297830F8B7
:1011A000210048F68F71084040F4004050F0C00024
:1011B00021682A7821F8220011E0687801280ED1F0
:1011C0002068297830F8210048F68F71084040F4F3
:1011D000404050F0800021682A7821F822002068E1
:1011E000297830F8210048F6BF71084090F01000CF
:1011F00090F0200040F4004050F0800021682A78F0
:1012000021F82200002084F8E801002070BD90F849
:10121000E821012A01D102205EE0012280F8E821C4
:10122000C9B20A0607D5C9B211F07F021C235A437E
:101230000244283207E0C9B21C2202FB01F2024438
:101240004FF484731A440123937011F07F031370D9
:10125000C9B2C90951701178002913D101681378F6
:1012600031F823104BF6BF73194091F4805191F07F
:10127000100141F4004151F080010368127823F815
:10128000221025E05178002911D00168137831F837
:10129000231048F6BF73194091F0100141F400414A
:1012A00051F080010368127823F8221010E00168E1
:1012B000137831F823104BF68F73194091F4805155
:1012C00041F4004151F080010368127823F82210A4
:1012D000002180F8E8110020704710B4C9B20A0656
:1012E00007D5C9B211F07F021C235A4302442832A9
:1012F00007E0C9B21C2202FB01F202444FF48473DE
:101300001A440023937011F07F031370C9B2C90906
:10131000517090F8E811012901D102205AE0012111
:1013200080F8E8115178002928D00168137831F845
:10133000231049060ED50168137831F8231048F6BA
:101340008F73194041F4004151F0C00103681478D3
:1013500023F824100168137831F8231048F6BF737E
:10136000194091F0100191F0200141F4004151F039
:1013700080010368127823F8221027E001681378AF
:1013800031F8231049040ED50168137831F8231081
:1013900048F68F73194041F4404151F080010368D1
:1013A000147823F824100168137831F823104BF6D1
:1013B0008F73194091F4805191F4005141F4004130
:1013C00051F080010368127823F82210002180F880
:1013D000E811002010BC704780B500689049884231
:1013E0001BD19048006850F400008E4908608D4879
:1013F000006810F4000000900098002200211320E3
:1014000000F082F9132000F090F90022002114204E
:1014100000F07AF9142000F088F901BD80B54FF48E
:10142000F6710144D0F81C0200F0F2F901BD80B55C
:10143000C9B21C2202FB01F20244D2F81821C9B23F
:10144000D0F81C0200F01EFA01BD80B5C9B21C2202
:1014500002FB01F20244926BC9B2D0F81C0200F008
:1014600057FA01BD80B5D0F81C0200F0F4FA01BDB6
:1014700010B504000121A068022801D1012100E07B
:101480000121C9B2D4F81C0200F0D3FAD4F81C022E
:1014900000F0ACFA10BD10B50400D4F81C0200F046
:1014A000CBFAA069002805D05F48006850F006001C
:1014B0005D49086010BD80B5D0F81C0200F0C5FA87
:1014C00001BD10B504005948C0F81C425748C4F883
:1014D00020025348554908600820544948600220BA
:1014E0005249886000205149C86002204F49086174
:1014F00000204E49886100204C4908624B48FEF7A5
:1015000011FE002801D000F059FC18230022002110
:10151000D4F8200200F053FC582300228021D4F894
:10152000200200F04CFC4FF4807300228121D4F89B
:10153000200200F044FC002010BD80B5D0F820024D
:10154000FEF77DFE002002BD10B51C001300DBB2CB
:10155000220092B2C9B2D0F82002FFF76DF9002044
:1015600010BD80B5C9B2D0F82002FFF769FB00209A
:1015700002BD80B5C9B2D0F82002FFF748FE0020B6
:1015800002BD80B5C9B2D0F82002FFF7A6FE002048
:1015900002BDD0F82002C9B20A0608D5C9B211F0BE
:1015A0007F011C225143084490F82A0007E0C9B289
:1015B00011F07F011C225143084490F80A01704742
:1015C00080B5C9B2D0F82002FFF71EF9002002BD95
:1015D00080B59BB2C9B2D0F82002FFF725FD0020EC
:1015E00002BD80B59BB2C9B2D0F82002FFF754FC0F
:1015F000002002BD0E4870477047C9B2012906D1CC
:101600000C48006850F001000A49086005E00948EC
:10161000006840084000074908607047000000006B
:10162000005C00402438024010ED00E0441C002023
:101630007C2100200400014010F0070148480068A8
:101640004FF6FF021040474A52EA0121084344493D
:101650000860704742480068C0F3022070470121CB
:1016600010F01F029140404A40B2400942F8201059
:10167000704740B2002808D509013C4A40B210F03A
:101680000F00104400F8041C03E00901384A40B27E
:101690001154704710B410F00700D0F10703052B68
:1016A00001D3042301E0D0F10703041D072C01D26C
:1016B000002000E0C01E012414FA03F35B1E194051
:1016C0008140012313FA00F0401E1040084310BC73
:1016D000704780B5411EB1F1807F01D301200EE03B
:1016E000401E244908600F215FF0FF30FFF7C1FF63
:1016F000002021490860072020490860002002BD21
:1017000080B5FFF799FF01BD70B504000D0016000C
:101710000020FFF79FFF32002900FFF7BBFF010009
:10172000200040B2FFF7A5FF70BD80B540B2FFF7C3
:1017300096FF01BD80B5FFF7CCFF02BD042806D19E
:101740000E48006850F004000C49086006E00B48A1
:1017500000687FF0040108400849086070470000F5
:101760000CED00E00000FA0500E100E018ED00E0FB
:1017700000E400E014E000E018E000E010E000E029
:1017800080B500F001F801BD704780B5002801D197
:10179000022011E0D0F81432002B02D00023C0F850
:1017A0001432002901D0C0F81012012180F8FC1178
:1017B0000270FFF786FE002002BD0022002903D040
:1017C000C0F81412002200E002221000C0B27047DC
:1017D00080B5FFF7B2FE002002BD0020704710B5B3
:1017E0000224D0F81422002A07D0C9B2D0F814225B
:1017F00012689047002800D100242000C0B210BD1C
:1018000080B5C9B2D0F8142252689047002002BDBA
:1018100010B504004FF40270204400F097FD012041
:10182000C4F8F401B4F80E02C4F8F80194F8080200
:1018300010F01F00C0B2002803D0022811D008D336
:1018400017E04FF4027004EB0001200000F0DAFA18
:1018500016E04FF4027004EB0001200000F0FEFAE5
:101860000EE04FF4027004EB0001200000F01CFBBE
:1018700006E094F8080210F080012000FFF779FEDE
:10188000002010BD10B5040008001100C0B20028EF
:101890002CD14FF482702044D4F8F421032A35D19E
:1018A000C26883689A420FD28268C368D21A826083
:1018B0008268C3689A4201D2826800E0C26892B22C
:1018C000200000F0A8FD21E0D4F8140200690028EF
:1018D00008D094F8FC01032804D12000D4F8141295
:1018E00009698847200000F09FFD0FE0D4F814122A
:1018F000896900290AD094F8FC11032906D1010056
:10190000C9B22000D4F8142292699047002010BD7B
:1019100010B504001000C9B2002956D114F1140109
:10192000D4F8F421022A45D1CA688B689A4210D2B1
:101930008A68CB68D21A8A608A6892B20100200055
:1019400000F060FD0023002200212000FFF749FE87
:1019500030E04868CA68B0FBF2F302FB13000028CD
:1019600017D14868CA68904213D34868D4F8F81170
:1019700088420ED200220021200000F043FD00200A
:10198000C4F8F8010023002200212000FFF729FEFF
:1019900010E0D4F81402C068002808D094F8FC01C4
:1019A000032804D12000D4F81412C9688847200005
:1019B00000F045FD94F80002012815D12000FFF742
:1019C0000CFF002084F800020EE0D4F814024069F5
:1019D000002809D094F8FC01032805D1C9B22000E1
:1019E000D4F8142252699047002010BD10B50400AD
:1019F0004023002200212000FFF7A6FD4020C4F86C
:101A000010014023002280212000FFF79DFD40208F
:101A10002062012084F8FC01D4F81802002806D0C6
:101A20006168C9B22000D4F814225268904700209F
:101A300010BD01740020704790F8FC1180F8FD1172
:101A4000042180F8FC110020704790F8FD1180F807
:101A5000FC110020704780B590F8FC11032908D1D3
:101A6000D0F81412C969002903D0D0F81412C9693A
:101A70008847002002BD000000B591B000F0EAFCEC
:101A800000F090F800F026F900F0DDF800F01AFD03
:101A900000F0FEF800F0B8FD00F0FFFC4FF47A71A2
:101AA000B0FBF1F0B04908600121B04800F0E6FE5B
:101AB0000028F1D00122AE494F2001F0C2FBAD4811
:101AC0000078002810D1A8480068AB490968401A7E
:101AD0003D2809D30120A74908700020A7490860C4
:101AE000A1480068A4490860A148007880072AD569
:101AF000A2480068401CA1490860A048006802286C
:101B000005D101F00BFD984800689B4908609B488F
:101B10000068032813D39448006899490968401A5B
:101B200005280CD393480078012808D101F0F6FC71
:101B30000020904908708C4800688F4908608A48E6
:101B400000688F4908608F480078002809D18648CE
:101B500000688D490968401A3D2802D3012089494F
:101B6000087083480078C0070CD5864800780128A3
:101B700008D10020834908707B48006882490860CA
:101B800001F008FD12226946002001F05AFB0122F3
:101B90007E49352001F055FB402269467C4801F022
:101BA000DAFD79E700B593B07A48006850F08050CC
:101BB000784908607748006810F0805000900098DD
:101BC0007548006830F4C05050F4006072490860F5
:101BD000012006900120079002200F905FF48030D2
:101BE00010905FF4002011905FF40000129006A89E
:101BF00001F0DCFD002801D000F0E0F80F2001909A
:101C00000320029000200390002004900020059003
:101C1000012101A802F0E1F9002801D000F0CEF87E
:101C200002F071FB4FF47A71B0FBF1F0FFF782FD27
:101C30000420FFF783FD002200215FF0FF30FFF753
:101C400063FD13B000BD80B5544855490860554840
:101C50005349486000205249886000205049C860BC
:101C60004FF480404E49086100204D4948610020F2
:101C70004B49886100204A49C861002048490862F0
:101C8000474800F025FE002801D000F097F801BD7C
:101C900080B54548454908605FF4E13043494860F4
:101CA00000204249886000204049C86000203F4928
:101CB00008610C203D49486100203C4988610020B2
:101CC0003A49C861394802F0ABFB002801D000F066
:101CD00075F801BD00B587B03548006850F00100C7
:101CE000334908603248006810F001000090009805
:101CF0002F48006850F002002D4908602C48006809
:101D000010F00200009000982948006850F004008C
:101D1000274908602648006810F0040000900098E9
:101D20002348006850F020002149086020480068DE
:101D300010F02000009000980120019000200290F7
:101D40000020039001A9094800F0C4FC1C20019068
:101D50000120029001A9174800F0BCFC1F20164981
:101D6000086007B000BD0000A02100200000024074
:101D7000AE21002018120020902100209C2100207C
:101D8000942100201912002098210020AD2100206C
:101D9000201A002024380240007000400054004007
:101DA0000C210020801A060000380140CC200020C1
:101DB0001C3802400008024018080240FEE710B438
:101DC00089B20C0607D589B211F07F011C2461434A
:101DD0000844283006E089B21C24614308444FF4CB
:101DE0008471084492B2002A03D100218172838059
:101DF00004E001218172C380190C0181002010BC14
:101E00007047000010B500244A78002A18D0012A33
:101E10001CD0032A17D0052A09D0062A04D0082A84
:101E20000BD0092A06D014E000F0EDF813E000F022
:101E300090F910E000F0B9F90DE000F025FA0AE0A1
:101E400000F040FA07E000F056FA04E000F064FA0F
:101E500001E000F08FFA2000C0B210BD70B50400A0
:101E60000D00002694F8FC01032817D128790428D6
:101E70000FDA29002000D4F8142292689047E888ED
:101E800000280AD1F6B2002E07D1200000F0CCFACB
:101E900003E02900200000F06DFA03E02900200093
:101EA00000F068FA002070BD70B505000E00002437
:101EB000B188307810F06000202807D13100280068
:101EC000D5F814229268904700209BE07078002893
:101ED0005DD0012830D0032840F0928095F8FC01B5
:101EE000022802D003280BD021E0C9B2002906D075
:101EF000C9B2802903D0C9B22800FFF73AFB1AE023
:101F00007088002809D1C9B2002906D0C9B2802939
:101F100003D0C9B22800FFF72CFB31002800D5F808
:101F2000142292689047280000F07EFA03E0310006
:101F3000280000F01FFA63E095F8FC01022802D0A7
:101F400003280BD01EE0C9B2002906D0C9B28029EF
:101F500003D0C9B22800FFF70CFB17E070880028F7
:101F60000FD17F20014209D0C9B22800FFF709FB39
:101F700031002800D5F8142292689047280000F01C
:101F800053FA03E03100280000F0F4F938E095F846
:101F9000FC01022802D0032808D02CE07F20014257
:101FA00003D0C9B22800FFF7E4FA28E0C9B2080656
:101FB00007D5C9B211F07F000001284410F11406C2
:101FC00008E0C9B211F07F00000128444FF482728A
:101FD00000EB0206C9B22800FFF7DBFA002802D0A6
:101FE0000120306001E00020306002223100280032
:101FF00000F0F8F903E03100280000F0BBF9FFE73A
:102000002000C0B270BD38B504000D00688880B2F1
:10201000000AC0B2012808D002281FD0032830D0FF
:10202000062869D0072875D084E06946207CD4F85A
:10203000102212689047BDF80010002900F0888037
:10204000E988002900F08480BDF80010EA889142F8
:1020500075D2BDF80010ADF8001073E0207C0028A8
:1020600007D16846D4F81412896A88470221417062
:1020700006E06846D4F81412C96A88470221417004
:10208000D9E7A878002808D0022814D00CD3042857
:102090001FD017D3052823D029E06946207CD4F827
:1020A000102252689047C6E76946207CD4F8102277
:1020B00092689047F7E76946207CD4F81022D268EE
:1020C0009047F0E76946207CD4F8102212699047C7
:1020D000E9E76946207CD4F8102252699047E2E78C
:1020E0006946207CD4F8102292699047DBE72900EA
:1020F000200000F03FF92BE0207C002805D1684645
:10210000D4F81412496B884795E72900200000F0A5
:1021100031F91DE0207C002807D16846D4F814125C
:10212000096B88470721417085E72900200000F0EE
:1021300021F90DE02900200000F01CF908E0E988F1
:10214000ADF80010BDF800200100200000F04AF9B1
:1021500031BD38B504008888002822D1C8880028FD
:102160001FD1887810F07F0594F8FC01032803D173
:10217000200000F0FFF817E084F8FE512900C9B2F2
:102180002000FFF71DFA200000F04EF9EDB2002DFF
:1021900003D0022084F8FC0106E0012084F8FC0151
:1021A00002E0200000F0E6F831BD38B504000D0073
:1021B00068883449087033480078032804DB290014
:1021C000200000F0D7F85CE094F8FC01022802D06F
:1021D00003281ED051E02B480078002815D029484C
:1021E00000786060032084F8FC0126480178200014
:1021F000FFF7F5FA022804D12900200000F0BAF810
:102200003FE0200000F010F902E0200000F00CF99F
:1022100037E01C48007800280ED1022084F8FC0129
:10222000184800786060174801782000FFF7E8FA46
:10223000200000F0F9F81FE0124800786168884239
:1022400017D06168C9B22000FFF7DAFA0D480078AC
:1022500060600C4801782000FFF7C1FA022804D121
:102260002900200000F086F80BE0200000F0DCF8E8
:1022700002E0200000F0D8F803E02900200000F080
:1022800079F831BDAF21002080B5CA88012A02D07B
:1022900000F070F815E090F8FC21022A02D0032A21
:1022A00008D00CE000218160012210F1080100F04B
:1022B00099F806E00122011D00F094F801E000F019
:1022C00059F801BD80B590F8FC21921E012A0FD863
:1022D0000121C160D0F80412002903D0C16851F077
:1022E0000201C160022210F10C0100F07BF801E054
:1022F00000F040F801BD10B50400488801280AD15B
:102300000120C4F804022000D4F8142292689047F7
:10231000200000F089F810BD10B5040094F8FC010D
:10232000801E01280ED8488801280AD10020C4F850
:1023300004022000D4F8142292689047200000F094
:1023400073F802E0200000F015F810BD0A78027062
:102350004A7842708A78CB7812EB032242800A795D
:102360004B7912EB032282808A79C97912EB012121
:10237000C180704710B5040080212000FFF7F9F8F4
:1023800000212000FFF7F5F810BDF8B504000D009E
:1023900017000026002C1AD0200000F019F8400089
:1023A000801C38803888F6B2A855761C0320F6B217
:1023B000A855761C08E02078F6B2A855641C761C57
:1023C0000020F6B2A855761C20780028F3D1F1BD84
:1023D000002101E0491C401C0278002AFAD10800C3
:1023E000C0B2704780B50223C0F8F43192B2826166
:1023F00092B2C26113009BB20A000021FFF7E8F815
:10240000002002BD80B513009BB20A000021FFF737
:10241000DFF8002002BD80B513009BB20A00002146
:10242000FFF7DFF8002002BD80B50421C0F8F411E9
:10243000002300220021FFF7CBF8002002BD80B569
:102440000521C0F8F411002300220021FFF7C9F88C
:10245000002002BD80B50320FFF752F9002000F0F4
:1024600004F802F099F9002002BD10B504001348E9
:1024700000684FF47A71B0FBF1F0FFF75BF90022CE
:1024800021005FF0FF30FFF73FF9002010BD0C483E
:102490000068401C0A490860704709480068704796
:1024A00011B581B00024FFF7F8FF0400FFF7F5FF36
:1024B000001B01998842F9D313BD0000D4100020FD
:1024C000A421002080B5002205490648FFF75DF9E8
:1024D00005490448FFF771F90248FFF779F901BD92
:1024E000D8100020201A00200C11002070B582B0F6
:1024F00000240026734800782A2805D071484078C7
:10250000652801D00C2020E06E48407B6D49097B96
:1025100011EB002010F11005102610E06949821916
:10252000114411F8031C6A461154401E0028F5D5C9
:1025300004226946962000F060FE0443361DAE4238
:1025400001D20320F2E72000C0B276BD10B582B000
:10255000684600210160002401219B2000F037FE25
:1025600004436420FFF79CFF0221342000F02FFE7B
:102570000443FFF7BBFF0443E4B2002C02D0200069
:10258000C0B220E004226946972000F05AFE0443BE
:102590009DF800004B490979884213D19DF801004C
:1025A0004849497988420DD19DF802004549897909
:1025B000884207D19DF803004249C979884201D178
:1025C000002000E00F2016BD10B582B000240121CC
:1025D0009B2000F0FCFD04431420FFF761FF012263
:1025E0006946372000F02DFE002807D19DF8000035
:1025F000C00701D4002006E01A2004E03249334825
:1026000002F064F9082016BD10B5FFF7DDFF0400E5
:10261000FFF79CFF0443E4B2002C05D0E4B2210094
:102620002B4802F053F91EE00121342000F0CFFDC9
:1026300004436420FFF734FF00F028FF0443062121
:10264000332000F0C4FD04436421552000F0BFFD99
:1026500004430B21562000F0BAFD044332215720D9
:1026600000F0B5FD0443E4B2200000280AD0082899
:102670000CD00C280AD01A2810D01C280AD01D28EB
:1026800008D012E0042002F033F917E0022002F033
:102690002FF913E0032002F02BF90FE0032002F0E2
:1026A00027F9022002F024F908E0042002F020F9C2
:1026B000022002F01DF9032002F01AF9E4B2200012
:1026C00010BD0000008D02084C670008D4660008A9
:1026D0008C65000878B40022002300242FE0052533
:1026E00012F00306F6B2B600B5402C436D4D9608C5
:1026F00045F826406C4C24689C434D68ED0300D59A
:102700001C43694D2C60694C24689C434D68AD03A3
:1027100000D51C43654D2C60654C24689C434D6876
:10272000ED0200D51C43624D2C60624C24689C4332
:102730004D68AD0200D51C435E4B1C60521C0B68FB
:10274000D340002B00F098800B6801249440234074
:10275000002BF3D04C68022C02D04C68122C15D1FF
:10276000D40800EB8404246A0F2512F00706F6B2A1
:10277000B600B540AC430D6912F00706F6B2B600DC
:10278000B5402C43D50800EB85052C620468032571
:102790001600F6B27600B540AC430D7915F003058E
:1027A0001600F6B27600B5402C4304604C68012C4C
:1027B00008D04C68022C05D04C68112C02D04C6813
:1027C000122C17D1846803251600F6B27600B540A6
:1027D000AC43CD681600F6B27600B5402C43846059
:1027E000446801259540AC434D68C5F300159540FC
:1027F0002C434460C46803251600F6B27600B54049
:10280000AC438D681600F6B27600B5402C43C46028
:102810004C68E40092D5284C246854F00104264DFD
:102820002C60254C246814F001040094009C1D4C7D
:10283000950854F825400F2512F00306F6B2B600AD
:10284000B540AC431D4DA84201D1002548E71C4DC1
:10285000A84201D1012543E71A4DA84201D1022522
:102860003EE7194DA84201D1032539E7174DA8428B
:102870007FF435AF042533E771BC7047006989B236
:10288000084201D0012000E00020C0B27047D2B25F
:10289000002A02D089B2816102E089B20904816113
:1028A000704700000800014000040140040401409A
:1028B000080401400C04014020380240000002409E
:1028C0000004024000080240000C024000100240D8
:1028D00038B5040000210020002C01D10120ACE01B
:1028E00094F83500002805D1002084F83400200039
:1028F00001F099FF01F00AFDDFF8CC14884201D203
:1029000001209AE0242184F83510216809684908DB
:10291000490022681160DFF8B414B0FBF1F12268BD
:102920005268920992010A4323685A602268126A27
:102930006368DFF89C54AB4201D2491C07E04FF4B6
:10294000967359434FF47A73B1FBF3F1491C920922
:1029500092011143226811622168C9696268DFF837
:1029600070349A420ED262685200B0FBF2F2120545
:10297000120D042A01D204202AE062685200B0FB42
:10298000F2F025E0A268002A05D1626803235A43C9
:10299000B0FBF2F206E0626819235A43B0FBF2F290
:1029A00052F48042120501D1012011E0A268002AF0
:1029B00005D1626803235A43B0FBF2F006E0626877
:1029C00019235A43B0FBF2F050F4804050F4004019
:1029D000DFF80024114008432168C86120680068BE
:1029E0007FF0C0010840E1690843216A084321687B
:1029F000086020688068DFF8E01308402169084318
:102A0000E1680843216888602068C068000A000205
:102A1000A1696269114308432168C86020680068A1
:102A200050F00100216808600020A063202084F895
:102A30003500002084F83600002032BD2DE9F04139
:102A400082B004000F0015001E0094F83500202805
:102A500040F08D8042F2107301225FF002112000DD
:102A600000F08BFA002801D0022081E094F83400B5
:102A7000012801D102207BE0012084F83400206885
:102A8000006830F4006021680860212084F8350077
:102A9000102084F836000020A063DDF82080424634
:102AA000390089B2200000F09BF900280CD0A06BFF
:102AB000042804D1002084F83400012058E00020CC
:102AC00084F83400032053E02068406900902068B7
:102AD00080690090009810E02878216808616D1CDA
:102AE000761E20684069400707D5B6B2002E04D094
:102AF0002878216808616D1C761EB6B2002E12D0AF
:102B00004146200000F0F4FA0028E5D0A06B04282C
:102B100007D12068006850F4007021680860012027
:102B200026E0032024E04146200000F0E1FA0028DE
:102B30000CD0A06B042807D12068006850F4007006
:102B400021680860012013E0032011E0206800687C
:102B500050F4007021680860202084F835000020BF
:102B600084F83600002084F83400002000E00220C1
:102B7000BDE8F6812DE9F04182B0040088461500D9
:102B80001E0094F83500202840F01B8142F210739B
:102B900001225FF00211200000F0EFF9002801D0BF
:102BA00002200FE194F83400012801D1022009E14C
:102BB000012084F834002068006830F40060216847
:102BC0000860222084F83500102084F836000020A8
:102BD000A063089F3A00414689B2200000F04AF9FC
:102BE00000280CD0A06B042804D1002084F8340005
:102BF0000120E7E0002084F834000320E2E0B6B2D0
:102C0000002E0DD1206840690090206880690090F6
:102C100000982068006850F400702168086040E067
:102C2000B6B2012E13D12068006830F480602168AC
:102C300008602068406900902068806900900098D2
:102C40002068006850F400702168086029E0B6B27E
:102C5000022E13D12068006830F48060216808607B
:102C60002068006850F400602168086020684069AE
:102C70000090206880690090009812E02068006849
:102C800050F48060216808602068406900902068E6
:102C900080690090009804E02068006928706D1C2D
:102CA000761EB6B2002E00F08180B6B2042E60DA35
:102CB000B6B2012E0CD13900200000F042FA0028F3
:102CC000EAD0A06B202801D103207BE0012079E02D
:102CD000B6B2022E1BD13B000022DFF8001120000B
:102CE00000F04BF9002801D003206BE02068006859
:102CF00050F40070216808602068006928706D1C1D
:102D0000761E2068006928706D1C761EC9E73B009E
:102D10000022DFF8C810200000F02FF9002801D0B1
:102D200003204FE02068006830F48060216808606C
:102D30002068006928706D1C761E3B000022DFF8B9
:102D40009C10200000F019F9002801D0032039E080
:102D50002068006850F400702168086020680069ED
:102D600028706D1C761E2068006928706D1C761E08
:102D700097E73900200000F0E4F9002806D0A06BA6
:102D8000202801D103201DE001201BE020680069FC
:102D900028706D1C761E2068406940077FF581AF62
:102DA0002068006928706D1C761E7AE7202084F860
:102DB0003500002084F83600002084F8340000201C
:102DC00000E00220BDE8F68180841E0040420F0032
:102DD000A18601000030FFFF007CFFFF040001001E
:102DE00070B504000E0015002068006850F4807073
:102DF000216808602B0000225FF00111200000F024
:102E0000BCF8002801D0032033E02069B0F5804FE2
:102E100004D116F0FE00216808611AE016F4407033
:102E200080B2C00950F0F000C0B2216808612A00E9
:102E3000DFF86414200000F00CF9002806D0A06B25
:102E4000042801D1012014E0032012E0F6B220682A
:102E500006612A00DFF84414200000F0FAF8002888
:102E600006D0A06B042801D1012002E0032000E07D
:102E7000002070BD70B582B004000D0016002068FF
:102E8000006850F48060216808602068006850F491
:102E9000807021680860330000225FF0011120007B
:102EA00000F06BF8002801D0032065E02069B0F540
:102EB000804F05D155F00100C0B2216808614BE098
:102EC00015F4407080B2C00950F0F000C0B2216823
:102ED00008613200DFF8C013200000F0BAF80028C3
:102EE00006D0A06B042801D1012045E0032043E077
:102EF0002800C0B2216808613200DFF8A01320006A
:102F000000F0A7F8002806D0A06B042801D101200A
:102F100032E0032030E0206840690090206880693A
:102F2000009000982068006850F480702168086064
:102F3000330000225FF00111200000F01EF800288D
:102F400001D0032018E015F4407080B2C00950F0A1
:102F5000F100C0B2216808613200DFF840132000A0
:102F600000F077F8002806D0A06B042801D10120DA
:102F700002E0032000E0002076BD2DE9F0410400CE
:102F80000D0090461E000027FFF787FA07005FFA42
:102F900088F8B8F1000F2CD1280CC0B201280AD152
:102FA00020684069284080B2A9B2884201D101203E
:102FB0000BE0002009E020688069284080B2A9B2B7
:102FC000884201D1012000E0002000283ED116F106
:102FD000010FE1D0002E04D0FFF75FFAC01B86423C
:102FE000DAD2202084F83500002084F83400032051
:102FF0002DE0280CC0B201280AD120684069284081
:1030000080B2A9B2884201D101200BE0002009E082
:1030100020688069284080B2A9B2884201D101208D
:1030200000E00020002811D016F1010FE1D0002EA1
:1030300004D0FFF732FAC01B8642DAD2202084F88F
:103040003500002084F83400032000E00020BDE8B3
:10305000F081F8B504000D0016000027FFF71DFAF7
:103060000700280CC0B201280AD120684069284016
:1030700080B2A9B2884201D101200BE0002009E012
:1030800020688069284080B2A9B2884201D101201D
:1030900000E00020002829D120684069400513D5B0
:1030A0002068006850F40070216808607FF4806038
:1030B000216848610420A063202084F835000020A6
:1030C00084F83400012012E016F1010FC9D0002E5F
:1030D00004D0FFF7E2F9C01B8642C2D2202084F858
:1030E0003500002084F83400032000E00020F2BD09
:1030F00070B504000D00FFF7D0F9060020684069A4
:1031000000061CD4200000F04EF8002801D0012059
:1031100016E015F1010FF1D0002D04D0FFF7BDF935
:10312000801B8542EAD2A06B50F02000A0632020D3
:1031300084F83500002084F83400032000E00020EB
:1031400070BD70B504000D000026FFF7A6F906005B
:1031500020684069400624D420684069C0060DD527
:103160007FF01000216848610020A063202084F8CF
:103170003500002084F83400012013E0002D04D035
:10318000FFF78BF9801B8542E2D2A06B50F0200044
:10319000A063202084F83500002084F83400032048
:1031A00000E0002070BD0168496949050DD57FF434
:1031B00080610268516104218163202180F835100B
:1031C000002180F83410012000E00020704700B595
:1031D00083B001228DF804008DF805100A200090BC
:1031E000022301AA50212E48FFF728FC0200002AE2
:1031F00001D0082000E000200EBD30B59BB01400C7
:1032000001228DF80400E4B2632C16DAE4B20DF169
:1032100005052200280001F081FB0A200090E4B29D
:10322000631C9BB201AA50211D48FFF707FC020056
:10323000002A04D100201BB030BD1E20FBE708206F
:10324000F9E731B582B00C0015000A200090012387
:1032500002AA50211248FFF7F1FB12490968C0B2D7
:103260000840104908600A200090EDB22B009BB284
:10327000220050210A48FFF77DFC0A490968C0B2C4
:1032800008400849086007480068002801D0082065
:1032900000E000203EBD0000080001000200010027
:1032A0000C210020D01000202DE9F04383B0050050
:1032B0000E001700002480208DF8030001220DF17C
:1032C00003015420FFF799FF04435FF0000815E065
:1032D0009DF801005FFA88F816F80810884225D199
:1032E000042201A93B20FFF7ACFF044301A80068BA
:1032F0005FFA88F845F8280018F1010840463900BF
:10330000C0B2C9B2884222D25FFA88F816F8080023
:103310008DF8020001220DF102016420FFF76DFF1C
:103320000443FF208DF801005FF0000901220DF138
:1033300001013A20FFF785FF04430120FFF7B0F8B1
:1033400019F10109B9F57A7FC2DB1D200FE00020D9
:103350008DF80000012269466420FFF74EFF044308
:10336000012269465420FFF748FF04432000BDE8CE
:10337000FE832DE9F04383B005000E001700002402
:1033800080208DF8020001220DF102015420FFF788
:1033900034FF04435FF000080AE09DF801005FFA83
:1033A00088F816F808108031884226D118F10108F3
:1033B00040463900C0B2C9B288422FD25FFA88F8BD
:1033C00055F8280001900DF10409042249466020B7
:1033D000FFF713FF04435FFA88F816F808008038F7
:1033E00089F80000012249466420FFF706FF0443E4
:1033F000FF208DF801005FF0000901220DF10101AD
:103400003A20FFF71EFF04430120FFF749F819F1A6
:103410000109B9F57A7FC0DB1D200FE000208DF88F
:103420000000012269466420FFF7E7FE0443012201
:1034300069465420FFF7E1FE04432000BDE8FE8307
:103440002DE9F04104000D00160000273200D2B231
:1034500029002000FFF728FF5FF0000810E015F8B2
:1034600008006A4911EB800154F8282040F60270E8
:10347000674B1860D317022001F08CFA18F101088D
:10348000F6B2B045EBD33800BDE8F08138B5002482
:1034900001F0A6FA12225F495F4D280001F03EFAC2
:1034A00008225E495E4D280001F038FA5D48006848
:1034B00042F66521884204D001205B4908701C2037
:1034C0002BE000205949086011E05348574909682A
:1034D000405C4E4911EB800000685549534A126820
:1034E00041F8220051480068401C504908604F488C
:1034F00000681A28E9D31A2247494D48FFF739FFD7
:103500000443002C03D100204749087002E0012049
:103510004549087001F07CFA200032BD00B593B037
:1035200001204449087001F05BFA40F60270384906
:103530000860002200233B49022001F02BFA1222EE
:1035400034496846FFF77CFF3B490978012910D1CF
:1035500000280ED13449097801290AD142F66522A2
:1035600000233049022001F015FA042001F0C0F9CF
:103570000CE000280AD12C480078002806D142F639
:10358000652200232749022001F004FA01F040FAE5
:1035900013B000BD00B589B001202749087001F0C3
:1035A0001FFA40F602701A490860002200231D49E4
:1035B000022001F0EFF9082218496846FFF740FFA2
:1035C0001C490978012910D100280ED11649097823
:1035D00001290AD142F6652200231249022001F096
:1035E000D9F9042001F084F90CE000280AD10E4832
:1035F0000078002806D142F66522002309490220FE
:1036000001F0C8F901F004FA09B000BDFEFF070897
:10361000183C0240FC11002048210020101200201C
:103620005A21002000000808B2210020A821002013
:1036300064200020B0210020B121002038B5040012
:1036400000254023032281212000FDF77DFF10206B
:10365000FDF7D0FFC4F81802D4F81802002801D1F1
:10366000012503E00020D4F8181208732800C0B226
:1036700032BD10B5040081212000FDF772FFD4F89F
:103680001802002806D0D4F81802FDF7B5FF002074
:10369000C4F81802002010BD38B500220024D0F86C
:1036A00018320D7815F06005EDB2002D21D0202DD7
:1036B0004FD14A78022A13D0032A06D00A2A09D009
:1036C0000B2A12D18878186043E001221900FEF716
:1036D00089FEF9E7488880B2000AC0B25860F3E773
:1036E0000122191DFEF77EFEEEE7FEF743FE0220E3
:1036F00030E04D78062D04D00A2D22D00B2D26D097
:1037000027E04B889BB21B0A9BB2222B07D1CA88A9
:103710007A2A01DB792200E0CA88204C0CE04B8831
:103720009BB21B0A9BB2212B06D11D4CCA880A2AC8
:1037300001DB092200E0CA8892B22100FEF752FEA6
:1037400007E0012213F10801FEF74CFE01E0887842
:103750009860002032BD10B5D0F8183290F8FC41C6
:10376000032C0AD11C7B002C07D101241C731300ED
:103770009BB20A008121FDF72BFF002010BD222102
:103780000180084870470021D0F81802017300201A
:1037900070470A2101800448704700008011002012
:1037A00068110020441100207411002038B5040075
:1037B00000252078C00740F1C680DFF8980B00682C
:1037C00010F00C0008280BD0DFF8880B006810F010
:1037D0000C000C2826D1DFF87C0B0068C00321D533
:1037E0004FF48040B0FA80F050F02000C0B24009A1
:1037F000C0B2012803D1DFF8580B006802E0DFF8FF
:10380000640B00684FF48041B1FA81F111F01F019F
:10381000C840C00740F197806068002840F093805E
:103820000120D9E36068012808D1DFF8240B006883
:1038300050F48030DFF8181B086037E0606800281B
:1038400010D1DFF80C0B006830F48030DFF8001B7B
:103850000860DFF8FC0A006830F48020DFF8F01A16
:10386000086023E06068052810D1DFF8E40A0068EA
:1038700050F48020DFF8D81A0860DFF8D40A006816
:1038800050F48030DFF8C81A08600FE0DFF8C00A93
:10389000006830F48030DFF8B81A0860DFF8B00A4A
:1038A000006830F48020DFF8A81A086060680028FB
:1038B00024D0FEF7F2FD05004FF48040B0FA80F00E
:1038C00050F02000C0B24009C0B2012803D1DFF897
:1038D000800A006802E0DFF88C0A00684FF480413B
:1038E000B1FA81F111F01F01C840C0072BD4FEF7D7
:1038F000D4FD401B6528DFD303206DE3FEF7CDFD2B
:1039000005004FF48040B0FA80F050F02000C0B2C3
:103910004009C0B2012803D1DFF8340A006802E090
:10392000DFF8400A00684FF48041B1FA81F111F0EC
:103930001F01C840C00706D5FEF7AFFD401B652834
:10394000DFD3032048E32078800742D5DFF8040A5C
:10395000006810F00C0004280BD0DFF8F8090068AC
:1039600010F00C000C284ED1DFF8E8090068C00305
:1039700049D45FF08040B0FA80F050F02000C0B22F
:103980004009C0B2012803D1DFF8C409006802E091
:10399000DFF8D00900685FF08041B1FA81F111F0E1
:1039A0001F01C840C00704D5E068012801D00120EC
:1039B00012E3DFF8A40900685FF47801B1FA81F13D
:1039C00030F4F850226912FA01F10843DFF888193F
:1039D00008602078C00640F1C580DFF878090068EB
:1039E00010F00C0F40F00B815FF48000B0FA80F013
:1039F00050F02000C0B24009C0B2012876D1DFF8F3
:103A00005009006875E0E06800283FD001205FF0B1
:103A10000041B1FA81F1DFF8DC2912EB8101086085
:103A2000FEF73BFD05005FF08040B0FA80F050F0FB
:103A30002000C0B24009C0B2012803D1DFF810094C
:103A4000006802E0DFF81C0900685FF08041B1FA0D
:103A500081F111F01F01C840C00706D4FEF71DFD1B
:103A6000401B0328DFD30320B6E2DFF8EC08006830
:103A70005FF47801B1FA81F130F4F850226912FA5A
:103A800001F10843DFF8D0180860A2E700205FF0DA
:103A90000041B1FA81F1DFF85C2912EB8101086085
:103AA000FEF7FBFC05005FF08040B0FA80F050F0BC
:103AB0002000C0B24009C0B2012803D1DFF890084D
:103AC000006802E0DFF89C0800685FF08041B1FA0E
:103AD00081F111F01F01C840C0077FF57AAFFEF7F2
:103AE000DCFC401B0328DED3032075E2DFF87408FA
:103AF00000685FF48001B1FA81F111F01F01C84044
:103B0000C00704D5A069002801D1012064E2DFF8D4
:103B10004808006810F46040216A88424FD2206A49
:103B200000F022FC002801D0012055E2DFF828082F
:103B3000006830F46040216A0843DFF81C18086010
:103B4000DFF814080068FF21B1FA81F120F07F400E
:103B5000E26912FA01F10843DFF8FC17086000205F
:103B6000FEF783FC2078000740F1E98060690028B7
:103B700000F0C18001205FF00041B1FA81F1DFF86F
:103B8000782812EB81010860FEF787FC05005FF0E2
:103B90008040B0FA80F0DFF8CC0700685FF0804129
:103BA000B1FA81F111F01F01C840C00700F1C780D0
:103BB000FEF773FC401B0328E9D303200CE2DFF877
:103BC0009807006830F46040216A0843DFF88817DE
:103BD0000860DFF884070068FF21B1FA81F120F066
:103BE0007F40E26912FA01F10843DFF86C170860C0
:103BF000206A00F0B9FB0028B1D00120ECE1A069F7
:103C0000002848D001205FF40001B1FA81F1DFF80B
:103C1000E42712EB81010860FEF73FFC05005FF42A
:103C20008000B0FA80F050F02000C0B24009C0B26D
:103C3000012803D1DFF81807006802E0DFF8240745
:103C400000685FF48001B1FA81F111F01F01C840F2
:103C5000C00706D4FEF721FC401B0328DFD3032056
:103C6000BAE1DFF8F406006830F46040216A0843E6
:103C7000DFF8E4160860DFF8E0060068FF21B1FA1B
:103C800081F120F07F40E26912FA01F10843DFF888
:103C9000C816086066E700205FF40001B1FA81F100
:103CA000DFF8502712EB81010860FEF7F6FB0500F4
:103CB0005FF48000B0FA80F050F02000C0B24009FC
:103CC000C0B2012803D1DFF88806006802E0DFF8FF
:103CD000940600685FF48001B1FA81F111F01F01D0
:103CE000C840C0077FF53EAFFEF7D7FB401B032857
:103CF000DED3032070E100205FF00041B1FA81F1D2
:103D0000DFF8F42612EB81010860FEF7C6FB050020
:103D10005FF08040B0FA80F0DFF8480600685FF09E
:103D20008041B1FA81F111F01F01C840C00706D5EA
:103D3000FEF7B3FB401B0328EAD303204CE12078B5
:103D4000400740F1A580DFF8B406006850F08050CD
:103D5000DFF8A8160860DFF8A406006810F08050AD
:103D600000900098DFF89806006850F48070DFF843
:103D700090160860FEF791FB0500DFF884060068E6
:103D8000C00506D4FEF789FB401B6528F5D3032048
:103D900022E1A068012808D1DFF8C805006850F4C6
:103DA0008070DFF8C015086037E0A068002810D1E7
:103DB000DFF8B005006830F48070DFF8A8150860FF
:103DC000DFF8A005006830F48060DFF8981508601F
:103DD00023E0A068052810D1DFF88805006850F4BA
:103DE0008060DFF880150860DFF87805006850F41F
:103DF0008070DFF8701508600FE0DFF86805006874
:103E000030F48070DFF85C150860DFF85805006852
:103E100030F48060DFF84C150860A06800281BD0E3
:103E2000FEF73BFB05005FF48000B0FA80F0DFF89E
:103E3000340500685FF48001B1FA81F111F01F01CF
:103E4000C840C00724D4FEF728FB401B41F289314B
:103E50008842E8D30320BFE0FEF71FFB05005FF4B4
:103E60008000B0FA80F0DFF8FC0400685FF48001A5
:103E7000B1FA81F111F01F01C840C00708D5FEF763
:103E80000CFB401B41F289318842E8D30320A3E0B8
:103E9000606A002800F09F80DFF8B804006810F026
:103EA0000C000C2800F09580606A022865D1002083
:103EB0008021B1FA81F1DFF83C2512EB8101086025
:103EC000FEF7EBFA05004020B0FA80F050F0200039
:103ED000C0B24009C0B2012803D1DFF87404006801
:103EE00002E0DFF8800400684021B1FA81F111F0AE
:103EF0001F01C840C00706D5FEF7CFFA401B0328B4
:103F0000E1D3032068E0DFF84C04006830F47D0062
:103F1000A16A0843E16A0843216B0843DFF83414BF
:103F2000086001208021B1FA81F1DFF8C82412EB8A
:103F300081010860FEF7B1FA05004020B0FA80F078
:103F400050F02000C0B24009C0B2012803D1DFF810
:103F50000004006802E0DFF80C0400684021B1FAB8
:103F600081F111F01F01C840C00734D4FEF795FA63
:103F7000401B0328E1D303202EE000208021B1FA6A
:103F800081F1DFF8702412EB81010860FEF785FAF9
:103F900005004020B0FA80F050F02000C0B2400987
:103FA000C0B2012803D1DFF8A803006802E0DFF8FF
:103FB000B40300684021B1FA81F111F01F01C8403B
:103FC000C00708D5FEF769FA401B0328E1D3032098
:103FD00002E0012000E0002032BD70B504000D00B9
:103FE0000026DFF82004006810F00100A8421BD270
:103FF000012D07D1DFF80C04006850F00400DFF851
:1040000004140860DFF8FC030068400840002843FF
:10401000DFF8F0130860DFF8EC03006810F001002F
:10402000A84201D0012027E1207880070AD5DFF8D7
:10403000240300687FF0F0010840A1680843DFF81E
:10404000141308602078C00740F1C7806068022818
:104050001CD14FF48040B0FA80F050F02000C0B284
:104060004009C0B2012803D1DFF8E402006802E091
:10407000DFF8F00200684FF48041B1FA81F111F0ED
:104080001F01C840C00759D40120F5E0606803282B
:1040900019D14020B0FA80F050F02000C0B24009A1
:1040A000C0B2012802D1AA48006802E0DFF8B402D9
:1040B00000684021B1FA81F111F01F01C840C0072A
:1040C0003CD40120D8E0606801281BD15FF080401B
:1040D000B0FA80F050F02000C0B24009C0B2012810
:1040E00002D19B48006802E0DFF8780200685FF0C8
:1040F0008041B1FA81F111F01F01C840C0071DD401
:104100000120B9E05FF48000B0FA80F050F02000A8
:10411000C0B24009C0B2012802D18D48006802E057
:10412000DFF8400200685FF48001B1FA81F111F01C
:104130001F01C840C00701D401209DE085480068E8
:10414000800880006168084382490860FEF7A5F98D
:104150000600606802280ED17E48006810F00C004E
:1041600008283AD0FEF799F9801B41F2893188423C
:10417000F2D3032080E0606803280ED17548006800
:1041800010F00C000C2828D0FEF787F9801B41F2B4
:1041900089318842F2D303206EE0606801280ED195
:1041A0006C48006810F00C00042816D0FEF775F972
:1041B000801B41F289318842F2D303205CE06548DC
:1041C000006810F00C0F08D0FEF767F9801B41F271
:1041D00089318842F3D303204EE0DFF828020068DB
:1041E00010F0010085421BD2012D07D1DFF8140227
:1041F000006850F00400DFF80C120860DFF80402D9
:104200000068400840002843DFF8F8110860DFF834
:10421000F401006810F00100A84201D001202BE059
:104220002078400707D54B48006830F4E060E1682B
:104230000843484908602078000708D545480068C9
:1042400030F46050216950EAC1004249086000F032
:1042500014F840490968DFF8B02111F0F0015FF06F
:104260007063B3FA83F3D940515CC8403C4908609D
:104270000020FEF7FAF8002070BD00200021002089
:104280000020002000203348006810F00C010429B1
:1042900004D0082904D00C2904D023E02F4831E0B1
:1042A0002E482FE05A4910F470124FF47053B3FAAD
:1042B00083F3DA40895C574A10F440004FF44073AE
:1042C000B3FA83F3D840105C224A1268D20304D5B3
:1042D000224A5143B1FBF0F003E0204A5143B1FBC5
:1042E000F0F00FE04C48006810F460405FF4E0210B
:1042F000B1FA81F1C8400121401C11FA00F04FF4DD
:1043000000414843704716480068704780B5FFF782
:10431000FAFF10490968414A11F4E0615FF4600353
:10432000B3FA83F3D940515CC84002BD80B5FFF7B2
:10433000EAFF08490968394A11F460515FF4E01353
:10434000B3FA83F3D940515CC84002BD00000000BD
:104350000038024008380240043802400024F400CB
:10436000D41000203438024038B504000020002565
:104370002648006810F0F00F21D120480068C000E6
:1043800002D500F0D9FB13E01C48006850F08050C3
:104390001A4908601948006810F080500090009891
:1043A00000F0CAFB1549096831F08051134A1160C9
:1043B000B0F5C05F03D1B4F5404F00D10125012D08
:1043C00005D11048006850F004000E4908600D48FF
:1043D00000684008400028430A490860094800680E
:1043E00010F00100A84201D0012000E0002032BD01
:1043F0000000000000004742800647422438024087
:1044000000700040003C02405C6700080838024031
:104410008C670008C467000804380240BC670008C5
:1044200010B50400002C01D1012031E0A069002862
:10443000FFD194F83900002805D1002084F8380015
:10444000200000F013FA022084F839002068C068C8
:1044500030F400502168C860200000F01AF820688D
:10446000006930F4904021680861206840697FF05D
:104470002A010840216848612068C06850F4005053
:104480002168C8600020E063012084F83900002022
:1044900010BD2DE9F041040000202068006930F4CF
:1044A0004050E168084321680861A0682169084319
:1044B00061690843E16908432168C968B44A114049
:1044C00008432168C8602068406930F44070A169E1
:1044D000084321684861E069B0F5004F40F0AC80C6
:1044E0002068AC49884253D1FFF720FF8046FFF790
:1044F0001DFF0600FFF71AFF0700FFF717FF050073
:10450000FFF714FF192101FB08F162685200B1FBAB
:10451000F2F16422B1FBF2F1192202FB06F26368A8
:104520005B00B2FBF3F2192303FB07F36668760026
:10453000B3FBF6F36426B3FBF6F3642606FB132203
:10454000D20032326423B2FBF3F2520012F4F8725A
:1045500012EB0111192202FB05F263685B00B2FB4A
:10456000F3F21923584363685B00B0FBF3F0642354
:10457000B0FBF3F0642303FB1020C0003230642250
:10458000B0FBF2F010F00700401821688860FCE0F2
:10459000FFF7BCFE8046FFF7B9FE0600FFF7B6FE48
:1045A0000700FFF7B3FE0500FFF7B0FE192101FB7E
:1045B00008F162685200B1FBF2F16422B1FBF2F142
:1045C000192202FB06F263685B00B2FBF3F21923C7
:1045D00003FB07F366687600B3FBF6F36426B3FBD0
:1045E000F6F3642606FB1322D20032326423B2FBB8
:1045F000F3F2520012F4F87212EB0111192202FBCD
:1046000005F263685B00B2FBF3F219235843636859
:104610005B00B0FBF3F06423B0FBF3F0642303FB17
:104620001020C00032306422B0FBF2F010F007001E
:10463000401821688860A8E020685649884252D115
:10464000FFF774FE8046FFF771FE0600FFF76EFE6F
:104650000700FFF76BFE0500FFF768FE192101FB5D
:1046600008F162689200B1FBF2F16422B1FBF2F151
:10467000192202FB06F263689B00B2FBF3F21923D6
:1046800003FB07F36668B600B3FBF6F36426B3FBDF
:10469000F6F3642606FB1322120132326423B2FBC6
:1046A000F3F212F0F00212EB0111192202FB05F2F3
:1046B00063689B00B2FBF3F21923584363689B00C5
:1046C000B0FBF3F06423B0FBF3F0642303FB102092
:1046D000000132306422B0FBF2F010F00F004018FD
:1046E0002168886051E0FFF711FE8046FFF70EFE5B
:1046F0000600FFF70BFE0700FFF708FE0500FFF7B7
:1047000005FE192101FB08F162689200B1FBF2F18C
:104710006422B1FBF2F1192202FB06F263689B00EE
:10472000B2FBF3F2192303FB07F36668B600B3FB91
:10473000F6F36426B3FBF6F3642606FB132212019C
:1047400032326423B2FBF3F212F0F00212EB0111E9
:10475000192202FB05F263689B00B2FBF3F21923F6
:10476000584363689B00B0FBF3F06423B0FBF3F0A5
:10477000642303FB1020000132306422B0FBF2F00E
:1047800010F00F00401821688860BDE8F08100003B
:10479000F369FFFF0038014080B54648006850F0DB
:1047A0000040444908604348006810F00040009011
:1047B00000984148006850F001003F4908603E48B9
:1047C000006810F00100009000980320FCF798FFAB
:1047D000002200217FF00B00FCF796FF0022002151
:1047E0007FF00A00FCF790FF002200217FF0090013
:1047F000FCF78AFF002200217FF00400FCF784FF11
:10480000002200217FF00300FCF77EFF0022002140
:104810007FF00100FCF778FF002200215FF0FF30FD
:10482000FCF772FF01BD00B587B0006823498842DC
:104830001AD14FF440700190122002900120039091
:10484000032004900420059001A91D48FDF742FFB4
:104850001848006850F400101649086015480068B0
:1048600010F400100090009807B000BD00B587B0AC
:104870000068144988421AD10F48006850F48040FB
:104880000D4908600C48006810F4804000900098C2
:104890004FF4C06001900220029001200390032099
:1048A00004900720059001A90748FDF713FF07B002
:1048B00000BD00002438024020380240005400406F
:1048C0000004024000380140000002400EB400B570
:1048D00082B003A9009102466B4601210348784447
:1048E0000A3000F031F906BC5DF810FB491E0000EB
:1048F00080B508490978012212FA00F008430549F9
:10490000087000220348017889B20348FDF7BFFF11
:1049100001BD0000AC2100200008024062B38B07FB
:1049200008D0521E11F8013B00F8013B00F0248032
:104930008B07F6D1830740F0208000BF103A07D3E1
:1049400030B4B1E83810103AA0E83810F9D230BCD1
:10495000530724BFB1E80810A0E8081044BF51F87D
:10496000043B40F8043BD20724BF31F8022B20F867
:10497000022B44BF0B7803707047083A07D3B1E8A5
:104980000810083A40F8043B40F804CBF7D253072C
:10499000E4E7000070B50E0014001D000120DFF8F0
:1049A0007401007C012801D1022018E00120DFF809
:1049B000641108744CF2503000F032F8C0B2002894
:1049C00008D10020DFF84C11486134604CF25030BF
:1049D00000F026F80021DFF83C211174C0B270BD50
:1049E0004D480068800711D54B480068C00705D5C1
:1049F0004B484C4908604C484A4908604B484C4970
:104A000008604C484A490860002000E001207047D7
:104A10004148006850F002003F490860002070479C
:104A200038B50400FDF739FD05003C480068C007B3
:104A30000BD514F1010FF8D0002C04D0FDF72DFD9B
:104A4000401B8442F1D203201FE0344800688007F5
:104A500002D502203149086030480068C0050FD4F3
:104A60002E48006800050BD42C480068800407D449
:104A70002A480068C00403D428480068800503D58C
:104A800000F004F8012000E0002032BD2348006857
:104A9000C00505D51F48406950F002001D49486116
:104AA0001E480068800505D51A48406950F001008D
:104AB0001849486119480068000509D5154840693A
:104AC00050F00400134948614FF400601349086036
:104AD00012480068800409D50E48406950F0200053
:104AE0000C4948614FF400500C4908600B480068BD
:104AF000C00409D50748406950F0100005494861D5
:104B00004FF48050054908604FF440700349086035
:104B10007047000064210020043C0240183C024021
:104B2000EFCDAB890C3C024005040302BFAE9D8C67
:104B3000103C0240161514130248006810F4C050CF
:104B400070470000007000402DE9F04FA1B0824690
:104B5000002016461D4602910B900DF144086FF09F
:104B600000490AE016F8011B0298D047002802907D
:104B700000F0B9820B98401C0B903078010001D1F5
:104B80000B98B2E22528EDD1002005900690079001
:104B9000089009900A9001E040F0010016F8011F0A
:104BA0002029F9D023290DD02B2904D02D2906D076
:104BB00030290AD00CE040F0020080B2EEE740F06D
:104BC0000400FAE740F00800F7E740F01000F4E7CF
:104BD0002A290ED12968296051F8042B2960002A5E
:104BE0000D9204D5514240F004000D9180B2761C24
:104BF00011E000210D9109E00D99494505D001EB27
:104C0000810302EB430130390D91761C3278A2F119
:104C100030010A29F0D331782E2903D04FF0FF312B
:104C20000C911DE016F8011F2A2907D12968296077
:104C3000761C51F8042B29600C9211E000210C9194
:104C400009E00C99494505D001EB810302EB4301D2
:104C500030390C91761C3278A2F130010A29F0D358
:104C6000ADF838000FF6A840317800F05FFE08B1CB
:104C700016F8010B8DF83A009DF83A00682802BF3B
:104C800031786829622005D06C2804BF30786C2800
:104C900003D171208DF83A00761C11A8049016F803
:104CA000017BB7F125002AD01C3800F0CA80001F14
:104CB000022840F2C680133800F0ED80093800F079
:104CC000C080801E00F05A81401E00F03081401EDE
:104CD000022840F2B680001F00F02981401F00F03A
:104CE0008180401E00F0D780401E24D0C01E0BD013
:104CF000801E00F0D080C01E00F0CD8048E125204D
:104D00008DF8440001204DE12868286050F8044BDC
:104D1000286003940C9F002F04D5204600F012FE5B
:104D2000074606E03A460021204600F027FE00B183
:104D3000071B069737E129682960002251F8040B08
:104D400029600021CDE9000111A80390DDE90001EF
:104D50009142049F08BF90424FF03C0C01D10C9A45
:104D6000C2B100F00F033033DBB23A2BA8BF2733B8
:104D7000ACF101020009BB54944640EA01700909F4
:104D80000022914208BF904204D0039A07EB0C0323
:104D90009A42E6D307EB0C000390CCF13C010C984F
:104DA0000691814209DA401A08904FF6EF71BDF87A
:104DB00038000840ADF83800F5E0002840F1F380F5
:104DC0009DF8380000F01400102840F0EC800D9899
:104DD000059A801A089A801A401A0128C0F2E380C6
:104DE0000890E0E09DF83A0062281AD0682806D0C2
:104DF0006A280CD06C281CD0712808D019E02868CB
:104E0000286050F8041B28600B980880CBE02868C5
:104E1000286050F8042B28600B98C117C2E90001E4
:104E2000C1E02868286050F8041B28600B980870BF
:104E3000B9E02868286050F8041B28600B980860C7
:104E4000B1E02868C01D6FF0070101EA00022A6086
:104E5000D2E9000108322A60CDE90001002902D51B
:104E600005982D210AE0BDF83800810702D5059884
:104E70002B2103E0C00705D50598202108F8001074
:104E8000401C059011A805990844039039466846CE
:104E900000F0ECF987E09DF83A006C280FD07128FB
:104EA00018BF6A280BD12868C01D6FF0070101EAFE
:104EB00000022A60D2E9000108322A6005E0296870
:104EC000296051F8040B29600021CDE900019DF80B
:104ED0003A00682803D1DDE9000180B20BE06228C6
:104EE00003D1DDE90001C0B205E0742818BF7A28BB
:104EF00004D1DDE900010021CDE900019DF8380071
:104F0000000732D5DDE900230020834208BF82423A
:104F10002BD047F02000782827D10598302108F8B9
:104F20000010401C411C059108F800701DE09DF820
:104F30003A00294600F0DCF8CDE90001DDE9002364
:104F400000218B4202DA05982D210AE0BDF83800D5
:104F5000810702D505982B2103E0C00705D50598E8
:104F6000202108F80010401C059011A8059908445C
:104F700003903946684600F0F3F814E001200590EC
:104F80002868286050F8041B28608DF844100AE057
:104F900025208DF8440001200590380003D088F8C2
:104FA0000170022005900D980599401A0899401A41
:104FB0000699401A0999401A0799401A0A99471AFE
:104FC0009DF83800400710D42020012F8DF84000B4
:104FD0000BDB3C46012310AA6946504600F081FCD9
:104FE000002840F08080641EF4D1DDF814B0BBF1DD
:104FF000000F11AC0CD014F8011B0298D047002808
:10500000029070D00B98401CBBF1010B0B90F2D1B9
:1050100030208DF84000089C012C09DB012310AAE8
:105020006946504600F05DFC00285CD1641EF5D155
:10503000DDF818B0039CBBF1000F0CD014F8011B75
:105040000298D047002802904DD00B98401CBBF12D
:10505000010B0B90F2D130208DF84000099C012CFF
:1050600009DB012310AA6946504600F03AFC0028EB
:1050700039D1641EF5D103980699DDF81CB04418A7
:10508000BBF1000F0BD014F8011B0298D04702901F
:1050900048B30B98401CBBF1010B0B90F3D13020AF
:1050A0008DF840000A9C012C08DB012310AA6946F8
:1050B000504600F016FCB0B9641EF6D19DF83800D9
:1050C00040077FF55AAD2020012F8DF84000FFF6F4
:1050D00054AD012310AA6946504600F002FC10B9F5
:1050E0007F1EF6D149E54FF0FF3021B0BDE8F08FCB
:1050F000622827D068281ED06A2808D06C2828D0BB
:10510000712804D0742824D07A280DD021E00868B2
:10511000C01D6FF0070210400860D0E9002308307E
:1051200008601946104670470A680A6052F8040B76
:105130000A60002170470A680A6052F8040B0A608E
:1051400000B20BE00A680A6052F8040B0A6040B231
:1051500004E00A680A6052F8040B0A60C11770473D
:105160002DE9F343054608462F696F2808BF082438
:1051700005D041F02001782914BF0A2410243C26D0
:10518000D5E90023642818BF69289046994606D1BE
:1051900000218B4203DAD8F1000869EB49090020AD
:1051A000814508BF80450CD1286B50B9082C38D1F7
:1051B00095F83800000734D530203B2687F83B00AF
:1051C0002FE0701E00900646404649462246E317EF
:1051D00000F000FC02F13000C0B23A2803DB9DF879
:1051E000041051390818B855494640462246E3177D
:1051F00000F0F0FB804689460020814508BF8045CD
:1052000003D0E868B9198842DBD3082C09D195F896
:105210003800000705D5B85D302802D0761E302052
:10522000B855B919E960C6F13C00296BA8618842FC
:1052300008DA081A28624FF6EF71288F084028878D
:10524000BDE8F38300290ED595F8381001F014015C
:10525000102908D1696B6A69891A2A6A891A0E1A93
:10526000012EA8BF2E62BDE8F38300002DE9F24FA6
:1052700004468EB0D4E90001CDE9020104AF9DF8E7
:10528000380040F0200BBBF1610F0AD0206B0028E2
:1052900048BF062004D408BFBBF1670F01D101202D
:1052A00020636168C1F30A5040F2FF7290421CD142
:1052B000080304BF2068002809D10320A0619DF8DD
:1052C000380061381A2835D30FF2586108E00320FE
:1052D000A0619DF8380061381A2828D30FF23C618C
:1052E000E0680322FFF71AFBC3E1012815DA204624
:1052F00000F0E7FB012810DB00250020BBF1610F67
:105300001FD1E16830220A708A1CE2609DF83820C3
:10531000612A0CBF782258220FE0626840F2FE3109
:1053200061F31E52451A62604FF0FF30E6E70FF25C
:10533000E851D5E70FF2E851D2E74A706169891C5C
:10534000616110B9002600258AE1BBF1610F40F0D0
:105350009880206BD4E900AB00284CBF2126461C66
:10536000DDE902010022002300F0CEFB36B23ABF95
:105370008BF00040CDE902A0CDE902AB06F10108B7
:105380002D1FB8F1010F8DF810200DF1110736DB3C
:10539000DDE902010022002300F0CEFB2FD21C2108
:1053A00002A800F0E1FBDDE9020100F063FCA8F1D6
:1053B0000708B8F1010F814609DB00F087FC0246BF
:1053C0000B46DDE9020100F099FCCDE90201F81D70
:1053D000072105E009F00F0200F8012D4FEA291915
:1053E000B9F1010F01DB491EF4D5491E5CBF002253
:1053F00000F8012DF9D5C71DB8F1010FC8DA0DF17C
:105400001100391AB142B8BF0E4636B230000DF164
:1054100011072FD4884206DA04A9014449780829E3
:10542000A8BF0F2100DA002104AA024400E0761E82
:1054300012F80139401E8B42F9D00F2904D104A97A
:1054400001444A78521C4A70002802D504AF761CE9
:105450002D1D36B2701E0DD439180A783032D2B2F2
:105460003A2A03DB9DF838303A3B9A18401E01F87F
:105470000129F2D5206B002840F1F280701E2063D4
:10548000EEE0DDE902010022002300F03DFB3CBF1D
:1054900081F00041CDE902012DB247F297506843F7
:1054A0004D49DFF8389180FB01214D1305EBD5758F
:1054B0002DB2C5F1070ABAF1010F98461CDBDDE9F0
:1054C00002675FEACA7007D542464B463046394606
:1054D00000F0D4FC06460F464046494642464B463D
:1054E0004FEA6A0A00F0CAFCBAF1000F804689460A
:1054F000E7D1CDE9026724E0CAF1000A0026384F5F
:1055000014E05FEACA7007D542464B46304639463A
:1055100000F0B4FC06460F464046494642464B461C
:1055200000F0ACFC4FEA6A0A80468946BAF1000FE7
:10553000E7D1DDE9020132463B4600F071FDCDE9DD
:105540000201BBF1660F216BDFF898900CBF05F1EB
:105550000A0006204618142EA8BF132630208DF806
:1055600010000DF11107012E40DBDDE9020100F012
:1055700097FB07F1080104221B4FA0FB0773DB0810
:1055800003EB8307A0EB4700303001F8010C164F06
:10559000A3FB0770C00800EB8007A3EB4703303381
:1055A000521E01F8023DE7D1083E012E01F1080725
:1055B000D9DBDDE9020100F073FB00F091FB02464C
:1055C0000B46DDE9020100F099FB00224B4600F09A
:1055D00055FCCDE90201C8E789B5F8140000244064
:1055E0000000F03F84D79741CDCCCCCC0DF1110019
:1055F000381A0DF1110702E0401E6D1E7F1C39782C
:105600003029F9D0BBF1660F08BF691C04D0BBF18B
:10561000650F0CBF01210021226B8E1836B2B042FB
:10562000B8BF064636B231001AD4814204DA785C3B
:105630003528A8BF392000DA30207A18521E00E041
:10564000761E12F80139491E8342F9D0392802D159
:10565000785C401C7854002902D57F1E761C6D1C96
:105660002DB29DF83810009533B23A46204600F02E
:1056700003F80FB0BDE8F08F2DE9F043054685B083
:105680001F46D5F83080012F8946164602DA0127D9
:105690000FF2942649F02000BDF93040662808BF7B
:1056A000641C17D0672840F0848014F1040FC0F206
:1056B0008680444580F2838095F83800641C00079A
:1056C00002D44745B8BFB84624B2B8EB040848BF77
:1056D0004FF0000824B2E868A969012C27DA4A1CB7
:1056E00030234354B8F1010F03DA95F8380000076E
:1056F00003D5E9682E208854521C18EB040FB8BF5C
:10570000C8F1000424B260426862A044B845AA61AE
:10571000B8BF4746E868AB693FB2EF613A463146E9
:105720001844FFF7FBF8A8EB0700A862C2E0224686
:105730009742084418DA3A463146FFF7EFF8A9696C
:105740007918E01BB8F1010FA961686203DA95F8D6
:105750003800000705D5EA682E205054E869401C3F
:10576000E861C5F82880A5E03146FFF7D7F8A869B9
:1057700020183F1BB8F1010F03DA95F8381009071C
:1057800003D5EA682E211154401CA8613FB2B845E8
:10579000B8BF4746E868AB693FB23A46311918448A
:1057A000FFF7BCF8A8693818A861A8EB0700686281
:1057B00080E0B9F1610F16D14FF0700918E047454C
:1057C00004DA95F83810090758BFB846B8F101084F
:1057D00048BF4FF00008B9F1670F14BF4FF04509FB
:1057E0004FF0650904E0B9F1410F08BF4FF05009CF
:1057F000A969EB68481CA861B8F1010F16F8012BE4
:105800005A5403DA95F83810090719D5EA68431C89
:10581000AB612E211154B8F1010F11DB7F1E3FB295
:10582000B845B8BF4746E8683FB23A4631461844E3
:10583000FFF774F8A8693818A861A8EB0700686238
:10584000E868A9690144200081F8009003D42B2066
:1058500048708E1C03E02D224A708E1C6442002783
:105860000DF1080808E00A22684600F004FD0198DE
:1058700008F8010B7F1C009C21B20129F3DA022FEA
:1058800006DA49F02000652804BF302006F8010B35
:105890004FB9302006F8010B07E07F1E02A8C05D5B
:1058A000303006F8010B012FF7DAE868A9690844DF
:1058B000301AE86195F8380000F0140010280DD176
:1058C0006869A9690818696A0818E9690818A96A5D
:1058D0000818696B8842BCBF081A286205B0BDE889
:1058E000F083F8B504460D4616461F46002077B1F2
:1058F00016F8011BA868A047A86030B1E86A401CF0
:10590000E86200207F1EF3D1F2BD4FF0FF30F2BD00
:10591000686A6C747A4C00006E616E004E414E00F5
:10592000696E6600494E4600300000000278C9B238
:105930008A421AB11CBF10F8012FF9E718BF0020E6
:105940007047000000F10103810704D010F8011B2B
:1059500089B18107FAD10268B2F10131914311F0A6
:10596000803F04BF50F8042FF6E710F8011B11B177
:1059700010F8011BFBE7C01A70470000C9B283078B
:1059800006D0521E22D310F8013B9942F7D11FE0F6
:10599000083A13D302F1040241EA012141EA01412C
:1059A00050F8043B121F21BF4B40A3F1013C2CEAED
:1059B000030C1CF0803FF3D0C9B2001F083210F86E
:1059C000013B521E28BF91EA030FF8D818BF0120EF
:1059D000401E70471B4213D1094236D12AB184467A
:1059E000B0FBF2F002FB10C2704700F04BBCFCD3DE
:1059F0000022002370470B000200002100207047A6
:105A0000904271EB030CF6D370B5B1FA81F4B3FA9E
:105A100083F52C1BA340C4F1200532FA05F633436D
:105A2000A2405FF00046E64002E05B085FEA320217
:105A3000841A71EB030524BF204629467641F4D32E
:105A400002000B003000002170BD012ACFD970B5D3
:105A5000140C20D0B1FA81F4B2FA82F5C4F120041A
:105A60006419B4F12006D6D3B2405FF00044F4408C
:105A7000002502E052085FEA3303C61A71EB020EFA
:105A800024BF3046714664416D41F3D302000B00E0
:105A90002000290070BD0C46B1FBF2F102FB11455C
:105AA0002D0445EA1045B5FBF2F402FB145580B213
:105AB00040EA0545B5FBF2F002FB105240EA044013
:105AC00070BD30B4436803F000420121C3F31303F7
:105AD0004360002B04BF0368002B08D10DE003686E
